:100000000C9462000C948A000C948A000C948A0070
:100010000C948A000C948A000C948A000C948A0038
:100020000C948A000C948A000C948A000C948A0028
:100030000C948A000C948A000C948A000C948A0018
:100040000C9496020C948A000C9406030C94E00223
:100050000C948A000C948A000C948A000C948A00F8
:100060000C948A000C948A000000000023002600F3
:10007000290000000000240027002A0000000000E2
:10008000250028002B0004040404040404040202D4
:100090000202020203030303030301020408102007
:1000A0004080010204081020010204081020000012
:1000B0000008000201000003040700000000000027
:1000C0000000BC0411241FBECFEFD8E0DEBFCDBFBF
:1000D00011E0A0E0B1E0E2EEF9E002C005900D927F
:1000E000A838B107D9F722E0A8E8B1E001C01D9215
:1000F000AF32B207E1F710E0C2E6D0E004C02197CA
:10010000FE010E94E904C136D107C9F70E943803F5
:100110000C94EF040C940000833081F028F48130BB
:1001200099F08230A9F008958730A9F08830C9F09D
:100130008430B1F4809180008F7D03C08091800075
:100140008F7780938000089584B58F7784BD08955C
:1001500084B58F7DFBCF8091B0008F778093B00006
:1001600008958091B0008F7DF9CF1F93CF93DF93D7
:10017000282F30E0F901E255FF4F8491F901E6564E
:10018000FF4FD491F901EA57FF4FC491CC23A9F056
:10019000162F81110E948C00EC2FF0E0EE0FFF1F54
:1001A000E458FF4FA591B4918FB7F894EC911111D9
:1001B00008C0D095DE23DC938FBFDF91CF911F91D4
:1001C0000895DE2BF8CFCF93DF9390E0FC01E65645
:1001D000FF4F24918A579F4FFC0184918823D1F0CF
:1001E00090E0880F991FFC01EE58FF4FA591B49144
:1001F000FC01E458FF4FC591D49161110EC09FB727
:10020000F8948C91E22FE0958E238C932881E22341
:10021000E8839FBFDF91CF9108958FB7F894EC9159
:10022000E22BEC938FBFF6CF3FB7F89480918E010D
:1002300090918F01A0919001B091910126B5A89B5A
:1002400005C02F3F19F00196A11DB11D3FBFBA2F68
:10025000A92F982F8827BC01CD01620F711D811D28
:10026000911D42E0660F771F881F991F4A95D1F7AD
:1002700008958F929F92AF92BF92CF92DF92EF92AA
:10028000FF926B017C010E9414014B015C01C114BF
:10029000D104E104F104B9F00E941401681979094C
:1002A0008A099B09683E73408105910580F321E02E
:1002B000C21AD108E108F10888EE880E83E0981E82
:1002C000A11CB11CE4CFFF90EF90DF90CF90BF90C6
:1002D000AF909F908F900895AF92BF92CF92DF9290
:1002E000EF92FF920F931F93CF93DF936C017B01EB
:1002F0008B01040F151FEB015E01AE18BF08C0177C
:10030000D10759F06991D601ED91FC910190F081EE
:10031000E02DC6010995892B79F7C501DF91CF91B1
:100320001F910F91FF90EF90DF90CF90BF90AF9013
:100330000895FC01538D448D252F30E0842F90E0EB
:10034000821B930B541710F0CF96089501970895D0
:10035000FC01918D828D981761F0A28DAE0FBF2F99
:10036000B11D5D968C91928D9F5F9F73928F90E0EF
:1003700008958FEF9FEF0895FC01918D828D98175E
:1003800031F0828DE80FF11D858D90E008958FEF9B
:100390009FEF0895FC01918D228D892F90E0805C64
:1003A0009F4F821B91098F739927089582E991E0ED
:1003B0000E94CA0121E0892B09F420E0822F0895D0
:1003C00080E090E0892B29F00E94D60181110C94E5
:1003D00000000895FC01A48DA80FB92FB11DA35AE8
:1003E000BF4F2C91848D90E001968F739927848F55
:1003F000A689B7892C93A089B1898C918370806478
:100400008C93938D848D981306C00288F389E02D18
:1004100080818F7D80830895EF92FF920F931F93C9
:10042000CF93DF93EC0181E0888F9B8D8C8D9813A7
:100430001AC0E889F989808185FF15C09FB7F894B3
:10044000EE89FF896083E889F989808183708064FF
:1004500080839FBF81E090E0DF91CF911F910F914A
:10046000FF90EF900895F62E0B8D10E00F5F1F4F59
:100470000F731127E02E8C8D8E110CC00FB607FC68
:10048000FACFE889F989808185FFF5CFCE010E94F6
:10049000EA01F1CFEB8DEC0FFD2FF11DE35AFF4F79
:1004A000F0829FB7F8940B8FEA89FB898081806284
:1004B000CFCFCF93DF93EC01888D8823B9F0AA8941
:1004C000BB89E889F9898C9185FD03C0808186FD0F
:1004D0000DC00FB607FCF7CF8C9185FFF2CF80815E
:1004E00085FFEDCFCE010E94EA01E9CFDF91CF91E8
:1004F0000895CF93DF93FC0101900020E9F7319735
:10050000AF01481B590BBC0182E991E00E946C01CC
:10051000EC0142E050E063E171E082E991E00E9489
:100520006C018C0F9D1FDF91CF9108951F920F9248
:100530000FB60F9211242F933F938F939F93AF93F6
:10054000BF9380918A0190918B01A0918C01B09111
:100550008D013091890123E0230F2D3758F5019645
:10056000A11DB11D2093890180938A0190938B0175
:10057000A0938C01B0938D0180918E0190918F0199
:10058000A0919001B09191010196A11DB11D8093A0
:100590008E0190938F01A0939001B0939101BF9130
:1005A000AF919F918F913F912F910F900FBE0F9020
:1005B0001F90189526E8230F0296A11DB11DD2CFDA
:1005C0001F920F920FB60F9211242F933F934F93C8
:1005D0005F936F937F938F939F93AF93BF93EF93AB
:1005E000FF9382E991E00E94EA01FF91EF91BF91B0
:1005F000AF919F918F917F916F915F914F913F91BB
:100600002F910F900FBE0F901F9018951F920F9271
:100610000FB60F9211242F938F939F93EF93FF9315
:10062000E091A201F091A3018081E091A801F091F5
:10063000A90182FD1BC090818091AB018F5F8F73F8
:100640002091AC01821741F0E091AB01F0E0EE5651
:10065000FE4F958F8093AB01FF91EF919F918F910A
:100660002F910F900FBE0F901F9018958081F4CF9F
:10067000789484B5826084BD84B5816084BD85B57D
:10068000826085BD85B5816085BD80916E00816089
:1006900080936E001092810080918100826080932F
:1006A0008100809181008160809381008091800031
:1006B0008160809380008091B10084608093B1005C
:1006C0008091B00081608093B00080917A00846056
:1006D00080937A0080917A00826080937A00809182
:1006E0007A00816080937A0080917A00806880939C
:1006F0007A001092C100E091A201F091A30182E082
:100700008083E0919E01F0919F011082E091A00111
:10071000F091A1018FEC80831092AA01E091A601D3
:10072000F091A70186E08083E091A401F091A501FA
:10073000808180618083E091A401F091A501808196
:1007400088608083E091A401F091A5018081806898
:100750008083E091A401F091A50180818F7D808349
:1007600061E087E00E94E30061E086E00E94E30030
:1007700061E085E00E94E30060E08CE00E94E3001D
:1007800080910001882309F48FC086E191E00E94E6
:100790007902CAEBD0E006EA10E092E9E92E90E097
:1007A000F92E2EE6A22E30E0C32E30E0D32E99246F
:1007B000939482E991E00E94CA011816190634F454
:1007C00082E991E00E94A80180938801FE01849152
:1007D000F801B490F7018490811069C0809188017C
:1007E000803709F078C090E080E02091000121116D
:1007F00070C09092000186E191E00E947902A0927F
:1008000088018091000161E0882309F473C087E0CA
:100810000E94B50061E085E00E94B50061E086E0DD
:100820000E94B50089E391E00E94790284E491E09E
:100830000E94790283E591E00E94790268EE73E0FC
:1008400080E090E00E94390160E087E00E94B500FE
:1008500060E085E00E94B50060E086E00E94B5009F
:100860008FE591E00E9479028BE691E00E94790287
:100870008BE791E00E94790268EE73E080E090E0FF
:100880000E94390162E370E080E090E00E9439014B
:10089000C114D10409F48DCF0E94D601882309F434
:1008A00088CF0E94000085CF85E291E070CF811152
:1008B0000E948C00E82DF0E0EE0FFF1FE859FF4F7B
:1008C000A591B4918C91B82209F488CF81E090E091
:1008D0008CCF892B29F480918801803709F08FCF44
:1008E00080910001882309F48ACF1092000185E2EB
:1008F00091E083CF87E00E94B50089E391E00E94F8
:10090000790268E873E180E090E00E94390160E0DC
:1009100087E00E94B5008FE591E00E94790261E0D6
:1009200085E00E94B50083E591E00E94790268EBC2
:100930007BE080E090E00E94390160E085E00E9469
:10094000B5008BE791E00E94790261E086E00E94A9
:10095000B50084E491E00E94790268EE73E080E0E3
:1009600090E00E94390160E086E00E94B5008BE6CD
:1009700091E00E94790286CFE2E9F1E013821282CF
:1009800088EE93E0A0E0B0E084839583A683B783EC
:1009900085E091E09183808385EC90E09587848762
:1009A00084EC90E09787868780EC90E0918B808B39
:1009B00081EC90E0938B828B82EC90E0958B848B22
:1009C00086EC90E0978B868B118E128E138E148E90
:1009D0000895EE0FFF1F0590F491E02D0994F8940F
:0209E000FFCF47
:1009E20001000000000C026C0199015902CA01A821
:1009F20001BC010D0A004D6F646F3A2053656D61B1
:100A0200666F726F004D6F646F3A204D616E746550
:100A12006E696D69656E746F006C6564526F6A6FA2
:100A2200204F4E006C6564416D6172696C6C6F2081
:100A32004F4E006C65645665726465204F4E006CC3
:100A42006564526F6A6F204F4646006C6564416D63
:100A52006172696C6C6F204F4646006C6564566526
:080A6200726465204F46460056
:00000001FF
